:060000000A128A11302FE4
:100E600083010A128A11472F83160313071387176A
:100E70002030980090308312031398001F3083169F
:100E800003139900831203130C128C1208000A1228
:100E90008A11B5270A128A110A128A1134270A12F6
:100EA0008A11532F532F831203138C1E582F592F3F
:100EB000532F5A2F1A08F7007708F80078080A12FB
:100EC0008A118F270A128A11532F532F0A128A115F
:100ED0000028F3008312031388120813881773087D
:100EE00086000230F2004430F100A930F000F00B2F
:100EF000772FF10B772FF20B772F640083120313F8
:100F000088130230F2004430F100A930F000F00BF9
:100F1000872FF10B872FF20B872F64000800F30057
:100F2000831203138816081388177308860002308B
:100F3000F2004430F100A930F000F00B9D2FF10BCE
:100F40009D2FF20B9D2F6400831203138813023030
:100F5000F2004430F100A930F000F00BAD2FF10B9E
:100F6000AD2FF20BAD2F640008008316031386012A
:100F70008812081388130230F6004430F500A930B7
:100F8000F400F40BC12FF50BC12FF60BC12F640039
:100F900038300A128A1169270A128A110F300A1290
:100FA0008A1169270A128A110C300A128A116927DC
:100FB0000A128A1102300A128A1169270A128A114A
:100FC00006300A128A1169270A128A1180300A1221
:100FD0008A1169270A128A110230F6004430F5009E
:100FE000A930F400F40BF22FF50BF22FF60BF22FD1
:100FF000640001300A128A1169270A128A11080056
:00000001FF
