:060000000A128A110C280F
:10000800FE00030EF0000A08F1000A128A11BE2948
:100018000A128A11CF294F210A128A110A30F200D6
:10002800F3016B212908F5002808F4008A200A1238
:100038008A117208303E78200A128A110A30F200BA
:10004800F3016B212908F5002808F400B4200A12EE
:100058008A117208303E78200A128A113A307820C4
:100068000A128A110A30F200F3016B212B08F500FD
:100078002A08F4008A200A128A117208303E782071
:100088000A128A110A30F200F3016B212B08F500DD
:100098002A08F400B4200A128A117208303E782027
:1000A8000A128A113A3078200A128A110A30F200AC
:1000B800F3016B212D08F5002C08F4008A200A12A0
:1000C8008A117208303E78200A128A110A30F2002A
:1000D800F3016B212D08F5002C08F400B4200A1256
:1000E8008A117208303E7828F3006B210F3086148D
:1000F80086057308F03986042F210A128A110F30F9
:100108006B218605730EF03986042F29F601F70155
:10011800730872040319AF28F801F80AF31B98282A
:100128000310F20DF30D91280310F60DF70D730867
:100138007502031DA12872087402031CAB287208FB
:10014800F4027308031CF503F50276140310F30C8C
:10015800F20CF80B98287708F3007608F2000800EC
:10016800730872040319D328F601F60AF31BC02892
:100178000310F20DF30DB92873087502031DC62884
:1001880072087402031CCF287208F4027308031C57
:10019800F503F5020310F30CF20CF60BC0287508F2
:1001A800F3007408F200080064210A128A11831609
:1001B800343064210A128A11F500F130F400F40B8E
:1001C800E328F50BE328E8285D210A128A112F217C
:1001D8000A128A110830F500C930F400F40BF2282D
:1001E800F50BF228F7285D210A128A112F210A122D
:1001F8008A116330F400F40BFF2802295D210A12EA
:100208008A112F210A128A110330F5009730F40061
:10021800F40B0C29F50B0C2911290F306B218605DD
:1002280086162F210A128A110330F5009730F40040
:10023800F40B1C29F50B1C29212928303D210A1211
:100248008A110C303D210A128A1101303D210A120F
:100258008A1106303D29A6300614F200F20B322925
:1002680064006B21A6300610F200F20B39296400F5
:100278000800F3006B210F30861086057308F039EB
:1002880086042F210A128A110F306B218605730EFE
:10029800F03986042F2901303D210A128A110330D2
:1002A800F5009730F400F40B5729F50B57295C2912
:1002B80008000F30831203138605303086040800C7
:1002C800061086100612861206138613080083127B
:1002D80003130800831203132508033AE8300319AF
:1002E8002406031D7C29A60A0319A70AA401A5014F
:1002F80026083C3A2704031D8629A20A0319A30AE3
:10030800A601A70122083C3A2304031D9029A00A4C
:100318000319A10AA201A3012008183A2104031D08
:100328000800A001A10108000A128A11D8200A12A7
:100338008A110A128A11DB210A128A1183122508EE
:100348002404031DB8292108A9002008A8002308AF
:10035800AB002208AA002708AD002608AC000A1244
:100368008A110F200A128A110A128A116E210A12A2
:100378008A11A2290B1DC829083083120313810092
:100388000B11A40A0319A50A71088A00700E8300CC
:10039800FE0E7E0E0900A001A101A201A301A40185
:1003A800A501A601A70183010A128A119829DC294F
:0E03B800C1308316031381058B168B170800C6
:02400E0072FF3F
:00000001FF
