:060000000A128A11332FE1
:100E36000A128A1174270A128A1100300A128A11BC
:100E4600E3270A128A1120300A128A11E3270A12AE
:100E56008A1101300A128A11E3270A128A11322FE7
:100E6600831203130130A0000230A1000430A20057
:100E76000830A3001030A4001130A5001F30A600D2
:100E8600A701A801A9001130AA00AB00AC001F30D1
:100E9600AD00AE01AF0183010A128A111B2FF500C6
:100EA600083075020318722F7508F4000310F40D4C
:100EB6000310F40D0310740D403EC6270A128A1162
:100EC600F60176087307F400840083130008E3270D
:100ED6000A128A110830F60A7602031C642F803043
:100EE600C62F081088108601831608108810860100
:100EF6000230F9000430F800BA30F700F70B812F02
:100F0600F80B812FF90B812F64003030C6270A12A7
:100F16008A112730F800F530F700F70B902FF80B01
:100F2600902F3030C6270A128A11D630F7009B2F31
:100F36009C2FF70B9A2F64003030C6270A128A11AD
:100F46000D30F800FB30F700F70BA72FF80BA72F93
:100F5600AC2F3830C6270A128A110C30C6270A125F
:100F66008A110130C6270A128A110630C6270A12CC
:100F76008A112030F300003052270A128A112830D5
:100F8600F3000130522FF200831203138810720807
:100F9600860004300814F1003D30F000F00BD12F2C
:100FA600F10BD12FD62F8312031304300810F10052
:100FB6003D30F000F00BDD2FF10BDD2FE22F0800A6
:100FC600F200831203138814720886000430081492
:100FD600F1003D30F000F00BEE2FF10BEE2FF32F6A
:100FE6008312031304300810F1003D30F000F00BBB
:0A0FF600FA2FF10BFA2FFF2F08006D
:02400E0072FF3F
:00000001FF
