:060000000A128A111F2FF5
:100E02000134023404340834103411341F340034F1
:100E12006C3469346E34753478347E088A007F0805
:100E220082000E270A128A118000840A04087D06B5
:100E320003190034FF0A0319FE0A122F83133C30F0
:100E4200FD000730FE000130FF002F3084000A123F
:100E52008A1112270A128A1183010A128A11662F35
:100E6200F200831203130710871007157208860019
:100E7200A330F1005530F000F00B3D2FF10B3D2F68
:100E82008312031307110800F300831203130714DC
:100E920087107308860007150330F2008830F100CE
:100EA2005630F000F00B532FF10B532FF20B532F50
:100EB2008312031307116230F1006530F000F00B6A
:100EC200602FF10B602F652F0800283084008312F9
:100ED2000313370883138000840A38088000840AC9
:100EE20039088000840A3A088000840A3B0880009E
:100EF200203084002F30F4000408F5000830F6009A
:100F02007408840083130008F700F40A750884004B
:100F120077088000F50AF60B812F831603138601EA
:100F2200870138300A128A1131270A128A110C30CD
:100F32000A128A1131270A128A1101300A128A1101
:100F420031270A128A1102300A128A1131270A1233
:100F52008A1106300A128A1131270A128A11803048
:100F62000A128A1131270A128A1183120313AD0160
:100F7200AE012E08803AFF0080307F02031DC32F8E
:100F82000A302D02031CC62FC72FC92FEE2FEE2FBA
:100F9200831203132D08303E0A128A1145270A12C2
:100FA2008A1180300A128A1131270A128A110130FD
:100FB20083120313AD070318AE0A0030AE072E08E2
:100FC200803AFF0080307F02031DE92F0A302D0294
:100FD200031CEC2FED2FC92FEE2F0D30F600A3309E
:100FE200F500BD30F400F40BF42FF50BF42FF60BE3
:0E0FF200F42F6400FC2FFC2F0A128A11002835
:02400E007A1F17
:00000001FF
