:060000000A128A11712FA3
:100EE20083010A128A11A72FF3008312031307103A
:100EF20087100715730888000230F2004430F100B1
:100F0200A930F000F00B832FF10B832FF20B832F0C
:100F120064008312031307110800F3008312031302
:100F2200071487100715730888000230F200443056
:100F3200F100A930F000F00B9C2FF10B9C2FF20B6B
:100F42009C2F6400831203130711080083160313F6
:100F52008701880138300A128A1175270A128A110C
:100F620001300A128A1175270A128A1102300A12F6
:100F72008A1175270A128A110F300A128A117527EF
:100F82000A128A11F701F8017808803AFF008030CE
:100F92007F02031DCE2F0A307702031CD12FD22FDE
:100FA200D42FFC2FFC2F42300A128A118E270A12EC
:100FB2008A110230F6004430F500A930F400F40B37
:100FC200E02FF50BE02FF60BE02F64000130F7075E
:100FD2000318F80A0030F8077808803AFF008030DA
:100FE2007F02031DF62F0A307702031CF92FFA2F16
:0E0FF200D42FFC2FFC2FFC2F0A128A1100288E
:00000001FF
