:060000000A128A11772F9D
:100EEE0083010A128A117B2F8030F0007008F30004
:100EFE00F4010314F40DF601831603138601831215
:100F0E0003138601B72F7408F000760A902F031092
:100F1E00F00DFF3E031D8E2F7308F100760A992FF8
:100F2E000310F10CFF3E031D972F71087004F200A1
:100F3E007208F50075088312031386000D30F20057
:100F4E00A330F100BD30F000F00BAB2FF10BAB2F47
:100F5E00F20BAB2F64000130F0007008F607B72FCC
:100F6E0004307602031CBC2FBD2F8A2FF6010430ED
:100F7E00F0007008F3002030F0007008F400F42F39
:100F8E007408F000760ACD2F0310F00DFF3E031DFE
:100F9E00CB2F7308F100760AD62F0310F10CFF3E0B
:100FAE00031DD42F71087004F2007208F500750845
:100FBE008312031386000D30F200A330F100BD3012
:100FCE00F000F00BE82FF10BE82FF20BE82F640086
:100FDE000130F0007008F607F42F02307602031C81
:100FEE00F92FFA2FC72F7B2F7B2F7B2F0A128A11F7
:020FFE000028C9
:02400E007A1F17
:00000001FF
