:100000000A128A11E82F00308A000408840A820745
:10001000003420342D3443346934723463347534FD
:100020006934743420344434693467346534733447
:100030007434003441346C34613472346D3420349F
:1000400043346C346F3463346B34003441346C3477
:10005000613472346D343A342034003454344934C9
:0A0060004D3445343A3420340034A6
:1000AC000A128A11742083160313111408000A1201
:1000BC008A11742083160313111508000A128A1171
:1000CC00742083120313200893000800640080013D
:1000DC00840A04060319003404066D2883160313DE
:1000EC0011081F39031D7428141D080074280030D2
:1000FC000A128A11BE200A128A1101300A128A11C0
:10010C00BE200800063400340A340034373400347E
:10011C00053400341234003408347E088A007F0819
:10012C00820093200A128A118000840A04087D063A
:10013C0003190034FF0A0319FE0A9728F000701CFB
:10014C00AB28831203130816AE288312031308126C
:10015C00F01CB2288816B3288812701DB72808170F
:10016C00B8280813F01DBC2888170800881308004D
:10017C00F30083120313081173080A128A11A420C6
:10018C000A128A118312031388151A30F200F83000
:10019C00F100F10BCF28F20BCF28000083120313D0
:1001AC0088110800F401F501701CE2287208F407AC
:1001BC000318F50A7308F50701300310F20DF30D5F
:1001CC00FF3E031DE32801300310F10CF00CFF3E41
:1001DC00031DEA2870087104031DDA287508F10064
:1001EC007408F0000800F700F501F60175087707B0
:1001FC0084000A128A1103200A128A11003A031988
:10020C0008007508770784000A128A1103200A1265
:10021C008A110A128A1198210A128A110130F507E3
:10022C000318F60A0030F607FC280F307605F800A4
:10023C0000307705F900760E0F39F000770EF039A3
:10024C00F004770E0F39F100F030F11D0030F1049D
:10025C000A30F2000030F3000A128A11D820780814
:10026C007007F60079080318790A7107F70008007F
:10027C000A128A1174200A128A118316031391151B
:10028C000A128A1174200A128A118312031313089A
:10029C00F200F3017208F4007308F5000A128A11D7
:1002AC0074200A128A1170087104031D61298316C7
:1002BC0003139116642983160313911211167508F2
:1002CC00F1007408F00008000A30F0000030F10072
:1002DC007A08F3007908F2000A128A11F6220A123F
:1002EC008A117008FB007108FC00FB0EFC0EF0304C
:1002FC00FC057B080F39FC04F030FB050A30F000DC
:10030C000030F1007A08F3007908F2000A128A1121
:10031C005A2270087B07F90071080318710A7C07D0
:10032C00FA000800F40074080F39F1007108F200AB
:10033C007408F039F1007108F300831203130815E7
:10034C007308F10004300310F10CFF3E031DA929C2
:10035C0071080A128A11A4200A128A11831203133B
:10036C0088154230F100F10BB929000083120313F8
:10037C00881172080A128A11A4200A128A11831297
:10038C00031388154230F100F10BCA2900008312C7
:10039C000313881108000030FC000030FB00003013
:1003AC00FA000030F900701CEF297408F907750881
:1003BC0003110318013E031DFA07760803110318F5
:1003CC00013E031DFB07770803110318013E031DB3
:1003DC00FC070130F8000310F40DF50DF60DF70DC8
:1003EC00F80BF12901300310F30CF20CF10CF00CAA
:1003FC00FF3E031DF9297308720471047004031D78
:10040C00D9297C08F3007B08F2007A08F1007908FE
:10041C00F0000800F7007703031D352A74087F3EAF
:10042C00F5007508FA007A08F50004300310F50C95
:10043C00FF3E031D1C2A7508F6007608F8007A08A2
:10044C000F39F5007508F90078080A128A11BE20D8
:10045C000A128A1179080A128A11BE200800023089
:10046C007706031D08007408BF3EF5007508FA00F6
:10047C007A08F50004300310F50CFF3E031D412AE9
:10048C007508F6007608F8007A080F39F50075083B
:10049C00F90078080A128A11BE200A128A1179080A
:1004AC000A128A11BE200800F601F31F642AF20911
:1004BC00F309F20A0319F30AF601F60AF11F6B2A83
:1004CC00F009F109F00A0319F10A70087104031913
:1004DC00982AF501F50AF11B7F2A01300310F00D63
:1004EC00F10DFF3E031D742A0130F4007408F5076A
:1004FC00712A71087302031D852A70087202031C8D
:10050C008D2A7008F2027108031CF303F302013008
:10051C000310F10CF00CFF3E031D8E2A0130F50286
:10052C00031D7F2A76080319A02AF209F309F20A9F
:10053C000319F30A7308F1007208F000080083161F
:10054C0003138715071628308312031394008316A0
:10055C0003139101831203132D08B1002E08B2006E
:10056C002F08B3003008B40002300310B10DB20DE7
:10057C00B30DB40DFF3E031DBB2A3408F300330842
:10058C00F2003208F1003108F0000030F7000030C2
:10059C00F6000030F5006430F4000A128A11D12103
:1005AC000A128A11730883120313A3007208A200A3
:1005BC007108A1007008A0000130A7003130A6001E
:1005CC002D30A5000030A4000A128A114F2383128B
:1005DC0003132008FF3E83160313930094010800B5
:1005EC00F601F11F002BF009F109F00A0319F10AC9
:1005FC00F601F60AF31F0B2BF209F309F20A0319A1
:10060C00F30A0130F4007408F606F701F8017008DB
:10061C0071040319422BF501F50AF11B212B013052
:10062C000310F00DF10DFF3E031D162B0130F400ED
:10063C007408F507132B01300310F70DF80DFF3E6E
:10064C00031D222B71087302031D2E2B70087202DE
:10065C00031C372B7008F2027108031CF303F3021E
:10066C00771401300310F10CF00CFF3E031D382BF6
:10067C000130F502031D212B760803194A2BF709CB
:10068C00F809F70A0319F80A7808F1007708F0005E
:10069C000800003083120313AB000030AA000030B6
:1006AC00A9000030A8002308220421042004031907
:1006BC00A62BAC01AC0AA31B712B0130FD0003105F
:1006CC00A00DA10DA20DA30DFD0B652B0130FD009E
:1006DC007D08AC07612B0130FD000310A80DA90D9E
:1006EC00AA0DAB0DFD0B732B23082702031D882BC2
:1006FC0022082602031D882B21082502031D882BA6
:10070C0020082402031C992B2008A4022108031C96
:10071C00210FA5022208031C220FA6022308031C8A
:10072C00230FA702281401300310A30CA20CA10C58
:10073C00A00CFF3E031D9A2B0130AC02031D712B44
:10074C002B08A3002A08A2002908A1002808A00051
:10075C00080000300A128A11A4200A128A111C30D7
:10076C00F6004130F7007708803AFF0080307F02B6
:10077C00031DC22B013076020318D62B0000FF306C
:10078C00F6070318F70AFF30F7077708803AFF00DF
:10079C0080307F02031DD42B01307602031CC42B46
:1007AC0003300A128A11BE200A128A112130F50078
:1007BC007630F400F40BE02BF50BE02B000003304B
:1007CC000A128A11BE200A128A114830F5006C30C8
:1007DC00F400F40BEF2BF50BEF2B000003300A1297
:1007EC008A11BE200A128A1102300A128A11BE2006
:1007FC000A128A1102300A128A11BE200A128A11B8
:10080C0008300A128A11BE200A128A1100300A120C
:10081C008A11BE200A128A110C300A128A11BE20CB
:10082C000A128A1100300A128A11BE200A128A1189
:10083C0006300A128A11BE2008000A128A115620AC
:10084C000A128A11D03083120313A0000030A100C9
:10085C000A128A1164200A128A11003083120313BF
:10086C00A000A1000A128A1164200A128A118312B4
:10087C0003134708FA004608F9000A128A116A2184
:10088C000A128A117A0883120313A1007908A000B6
:10089C000A128A1164200A128A1183120313540853
:1008AC00FA005308F9000A128A116A210A128A11F5
:1008BC007A0883120313A1007908A0000A128A1186
:1008CC0064200A128A11831203135208FA00510889
:1008DC00F9000A128A116A210A128A117A08831203
:1008EC000313A1007908A0000A128A1164200A12CD
:1008FC008A11013083120313A0000030A1000A12E8
:10090C008A1164200A128A11831203135008FA0008
:10091C004F08F9000A128A116A210A128A117A0800
:10092C0083120313A1007908A0000A128A11642013
:10093C000A128A11831203135608FA005508F9009B
:10094C000A128A116A210A128A117A088312031375
:10095C00A1007908A0000A128A1164200A128A11D7
:10096C00831203135808FA005708F9000A128A1167
:10097C006A210A128A117A0883120313A1007908DA
:10098C00A0000A128A1164200A128A110A128A1112
:10099C005D2008000A128A1156200A128A11D030E2
:1009AC0083120313A0000030A1000A128A116420E4
:1009BC000A128A11003083120313A000A1000A123C
:1009CC008A1164200A128A110A128A115D200A12F5
:1009DC008A110A128A1156200A128A11D1308312F6
:1009EC000313A0000030A1000A128A1164200A121D
:1009FC008A110130F0000030F1000A128A113E21F8
:100A0C000A128A117108F7007008F6000A128A118E
:100A1C001B210A128A11770883120313C700760868
:100A2C00C6000130F0000030F1000A128A113E219C
:100A3C000A128A117108F7007008F6000A128A115E
:100A4C001B210A128A11770883120313D40076082B
:100A5C00D3000130F0000030F1000A128A113E215F
:100A6C000A128A117108F7007008F6000A128A112E
:100A7C001B210A128A11770883120313D2007608FD
:100A8C00D1000130F0000030F1000A128A113E2131
:100A9C000A128A110130F0000030F1000A128A119A
:100AAC003E210A128A117108F7007008F6000A122A
:100ABC008A111B210A128A11770883120313D000A2
:100ACC007608CF000130F0000030F1000A128A11D4
:100ADC003E210A128A117108F7007008F6000A12FA
:100AEC008A111B210A128A11770883120313D6006C
:100AFC007608D5000130F0000030F1000A128A119E
:100B0C003E210A128A117108F7007008F6000A12C9
:100B1C008A111B210A128A11770883120313D80039
:100B2C007608D7000A128A115D200A128A110A125D
:100B3C008A1156200A128A11D13083120313A00095
:100B4C000030A1000A128A1164200A128A110130A5
:100B5C00F0000030F1000A128A113E210A128A11AB
:100B6C000A128A115D200800831603138801FF30D6
:100B7C00860081018312031388100A128A11AF2395
:100B8C000A128A11003083120313B0000030AF0038
:100B9C000030AE006430AD000A128A11A5220A1290
:100BAC008A110A128A1123240A128A110A128A1132
:100BBC007D200A128A11F401F40A01300A128A11FA
:100BCC0010220A128A1112300A128A11F9200A1202
:100BDC008A11F401F40A02300A128A1110220A1244
:100BEC008A1101300A128A11F9200A128A1127304F
:100BFC0083120313B7000D30B6004B30B500B50BA4
:100C0C00052EB60B052EB70B052E00000A128A1105
:100C1C00D0240A128A110A30F0000030F10083123D
:100C2C0003134708F3004608F2000A128A115A22ED
:100C3C000A128A11700883120313B5003508B80024
:100C4C000A30F0000030F1004708F3004608F200CB
:100C5C000A128A11F6220A128A11700883120313DF
:100C6C00B5003508B9000A30F0000030F100540826
:100C7C00F3005308F2000A128A115A220A128A113E
:100C8C00700883120313B5003508BA000A30F0005F
:100C9C000030F1005408F3005308F2000A128A11D4
:100CAC00F6220A128A11700883120313B500350854
:100CBC00BB000A30F0000030F1005208F30051087C
:100CCC00F2000A128A115A220A128A11700883122F
:100CDC000313B5003508BC000A30F0000030F100F9
:100CEC005208F3005108F2000A128A11F6220A1275
:100CFC008A11700883120313B5003508BD000A125F
:100D0C008A117D200A128A11F401F40A01300A12A8
:100D1C008A1110220A128A1126300A128A11F9201D
:100D2C000A128A11831203133D08303E0A128A11EB
:100D3C0098210A128A11831203133C08303E0A12BE
:100D4C008A1198210A128A113A300A128A119821B2
:100D5C000A128A11831203133B08303E0A128A11BD
:100D6C0098210A128A11831203133A08303E0A1290
:100D7C008A1198210A128A113A300A128A11982182
:100D8C000A128A11831203133908303E0A128A118F
:100D9C0098210A128A11831203133808303E0A1262
:100DAC008A1198210A128A11F401F40A02300A12EB
:100DBC008A1110220A128A111E300A128A11F92085
:100DCC000A128A11831203133E08303E0A128A114A
:100DDC0098210A128A11831203134008303E0A121A
:100DEC008A1198210A128A113A300A128A11982112
:100DFC000A128A11831203134208303E0A128A1116
:100E0C0098210A128A11831203134408303E0A12E5
:100E1C008A1198210A128A11023083120313B70027
:100E2C004530B600A930B500B50B1A2FB60B1A2FEA
:100E3C00B70B1A2F212F8312031386182C2F4D0852
:100E4C00031D2C2F861C282FCD01CD0A8618342F7C
:100E5C004D03031D342F861C312FCD014D03031D73
:100E6C00842F06183D2F061C392F0130D902061984
:100E7C00452F061D3F2F0130B5003508D9070A3024
:100E8C005902031C4C2FCC01CC0A4D2FCC018619D6
:100E9C005D2F861D4F2F5908B5003507F03E3E3E9D
:100EAC008400013083138007840A0318800A061A11
:100EBC00732F861D5F2F5908B5003507F03E3E3E57
:100ECC008400FF3083138007840F00080318000A86
:100EDC00FF00FF307F07800084034C085907B500E2
:100EEC003508F40002300A128A1110220A128A11F3
:100EFC005F300A128A1198210A128A118312031385
:100F0C004D08031DB72F3D08B500B6013F08360646
:100F1C00031D922F3E083506031DB72F3C08B50064
:100F2C00B60141083606031D9D2F40083506031DEA
:100F3C00B72F3B08B500B60143083606031DA82F92
:100F4C0042083506031DB72F3A08B500B60145080F
:100F5C003606031DB32F44083506031DB72FCE01EB
:100F6C00CE0A4E080319D82F88140D30B700AF30B5
:100F7C00B600C130B500B50BC12FB60BC12FB70BE6
:100F8C00C12F00008312031388100D30B700AF304F
:100F9C00B600C130B500B50BD12FB60BD12FB70BA6
:100FAC00D12F0000063083120313B7001330B600A4
:100FBC00B130B500B50BE02FB60BE02FB70BE02F1F
:100FCC00E72F0C2E83135A30FD000030FE008830C2
:100FDC00FF004F3084000A128A1197200A128A11DE
:100FEC003E3084004F300A128A116C2083010A12A1
:040FFC008A11BA2D6F
:02400E00723FFF
:00000001FF
