:060000000A128A11672FAD
:100ECE0083010A128A118A2FF0007008831203130D
:100EDE009900712F0C1E742F752F712F0C12080094
:100EEE0083160313071787139801831203139801B0
:100EFE001F30831603139900981683120313981745
:100F0E000C128C1208000A128A1177270A128A1103
:100F1E0053300A128A116B270A128A110330F3001A
:100F2E008830F2005630F100F10B9B2FF20B9B2F05
:100F3E00F30B9B2F4C300A128A116B270A128A115F
:100F4E000330F3008830F2005630F100F10BAD2F74
:100F5E00F20BAD2FF30BAD2F20300A128A116B2737
:100F6E000A128A110330F3008830F2005630F10075
:100F7E00F10BBF2FF20BBF2FF30BBF2F44300A1212
:100F8E008A116B270A128A110330F3008830F2009F
:100F9E005630F100F10BD12FF20BD12FF30BD12FD5
:100FAE0050300A128A116B270A128A110330F3008D
:100FBE008830F2005630F100F10BE32FF20BE32FE5
:100FCE00F30BE32F49300A128A116B270A128A118A
:100FDE000330F3008830F2005630F100F10BF52F9C
:100FEE00F20BF52FF30BF52FFC2FFC2F0A128A11A3
:020FFE000028C9
:02400E007A1F17
:00000001FF
