:060000000A128A11122D04
:100A240083010A128A11032EF200831203130710A2
:100A34008710071572088600A330F1005530F000C6
:100A4400F00B222DF10B222D831203130711080042
:100A5400F300831203130714871073088600071525
:100A64000330F2008830F1005630F000F00B382DDE
:100A7400F10B382DF20B382D83120313071141307B
:100A8400F100EE30F000F00B452DF10B452D640024
:100A94000800F201F301712DF401F5010030750233
:100AA4001E3003197402031C582D592D5B2D6B2D18
:100AB4006B2D0130F4070318F50A0030F5070030F8
:100AC40075021E3003197402031C692D6A2D5B2DF7
:100AD4006B2D0130F2070318F30A0030F307710895
:100AE4007302031D772D70087202031C7A2D7B2D6F
:100AF4004E2D7C2D08008316031386018701963042
:100B0400F0000030F1000A128A114B250A128A11F2
:100B140030300A128A112A250A128A112D30F00067
:100B24000030F1000A128A114B250A128A11303062
:100B34000A128A112A250A128A111E30F000003086
:100B4400F1000A128A114B250A128A1130300A1256
:100B54008A112A250A128A114130F0000030F1006E
:100B64000A128A114B250A128A1138300A128A1184
:100B740016250A128A113230F0000030F1000A12F0
:100B84008A114B250A128A110C300A128A11162571
:100B94000A128A113230F0000030F1000A128A1170
:100BA4004B250A128A1101300A128A1116250A12DB
:100BB4008A113230F0000030F1000A128A114B25FC
:100BC4000A128A1106300A128A1116250A128A118B
:100BD4003230F0000030F1000A128A114B250A125B
:100BE4008A1180300A128A1116250A128A113230AB
:100BF400F0000030F1000A128A114B250A128A1102
:100C040008000A128A117D250A128A1101300A127B
:100C14008A1116250A128A1140300A128A111625E1
:100C24000A128A1102300A128A112A250A128A111A
:100C340004300A128A112A250A128A1104300A126F
:100C44008A112A250A128A1104300A128A112A25C5
:100C54000A128A1104300A128A112A250A128A11E8
:100C640004300A128A112A250A128A1108300A123B
:100C74008A112A250A128A1148300A128A11162565
:100C84000A128A1100300A128A112A250A128A11BC
:100C940000300A128A112A250A128A1100300A1217
:100CA4008A112A250A128A1111300A128A112A2558
:100CB4000A128A110E300A128A112A250A128A117E
:100CC40000300A128A112A250A128A1104300A12E3
:100CD4008A112A250A128A1150300A128A111625FD
:100CE4000A128A1100300A128A112A250A128A115C
:100CF40000300A128A112A250A128A1111300A12A6
:100D04008A112A250A128A110E300A128A112A25FA
:100D14000A128A1100300A128A112A250A128A112B
:100D24000A300A128A112A250A128A1104300A1278
:100D34008A112A250A128A1158300A128A11162594
:100D44000A128A1100300A128A112A250A128A11FB
:100D54000A300A128A112A250A128A1100300A124C
:100D64008A112A250A128A1111300A128A112A2597
:100D74000A128A110E300A128A112A250A128A11BD
:100D840000300A128A112A250A128A1100300A1226
:100D94008A112A250A128A1160300A128A1116252C
:100DA4000A128A1104300A128A112A250A128A1197
:100DB40006300A128A112A250A128A1106300A12EA
:100DC4008A112A250A128A1100300A128A112A2548
:100DD4000A128A1111300A128A112A250A128A115A
:100DE4000E300A128A112A250A128A1100300A12B8
:100DF4008A112A250A128A1168300A128A111625C4
:100E04000A128A1100300A128A112A250A128A113A
:100E14000A300A128A112A250A128A1104300A1287
:100E24008A112A250A128A1111300A128A112A25D6
:100E34000A128A110E300A128A112A250A128A11FC
:100E440000300A128A112A250A128A1100300A1265
:100E54008A112A250A128A1170300A128A1116255B
:100E64000A128A111F300A128A112A250A128A11BB
:100E740012300A128A112A250A128A1114300A120F
:100E84008A112A250A128A1108300A128A112A257F
:100E94000A128A1114300A128A112A250A128A1196
:100EA40011300A128A112A250A128A1104300A12F0
:100EB4008A112A250A128A1178300A128A111625F3
:100EC4000A128A111F300A128A112A250A128A115B
:100ED40012300A128A112A250A128A1114300A12AF
:100EE4008A112A250A128A1108300A128A112A251F
:100EF4000A128A1116300A128A112A250A128A1134
:100F040015300A128A112A250A128A1104300A128B
:100F14008A112A250A128A110D30F800A330F7002D
:100F2400BD30F600F60B942FF70B942FF80B942F8B
:100F3400640080300A128A1116250A128A110030C0
:100F44000A128A112A250A128A1181300A128A1178
:100F540016250A128A1101300A128A112A250A1248
:100F64008A11C4300A128A1116250A128A11023013
:100F74000A128A112A250A128A11C6300A128A1103
:100F840016250A128A1103300A128A112A250A1216
:100F94008A11C8300A128A1116250A128A110430DD
:100FA4000A128A112A250A128A11CA300A128A11CF
:100FB40016250A128A1105300A128A112A250A12E4
:100FC4008A11CC300A128A1116250A128A110630A7
:100FD4000A128A112A250A128A11CE300A128A119B
:100FE40016250A128A1107300A128A112A250A12B2
:0C0FF4008A11082E082E0A128A1100280B
:02400E007A1F17
:00000001FF
